:09089F0048454C4C4F2047540021
:0E086D001208597BFF7A08799F12080080FE5E
:100859007F3812087B7F0C12087B7F0612087B7F8A
:040869000102087B05
:0C087B008F90C2A0D2A1120823C2A122BB
:0C0887008F90D2A0D2A1120823C2A1229F
:100800008B088A09890AAB08AA09A90A120840FFBD
:1008100060101208877401250AF50AE43509F50904
:0308200080E4224F
:10082300E4FFFEE4FDFC0DBD00010CBC04F8BDFBC0
:0C083300F50FBF00010EEF64324E70E7BD
:01083F002296
:0300000002089360
:0C089300787FE4F6D8FD75810A02086D3C
:10084000BB010689828A83E0225002E722BBFE02B6
:09085000E32289828A83E49322E9
:00000001FF
