:06085B00D2A17F017E0026
:10086100E4FDFCC3ED9FEC9E5015E4FBFA0BBB00CD
:0F087100010ABA04F8BBFBF50DBD00010C80E4D1
:010880002255
:0A08B2008F80C2A012085BC2A122D1
:0A08BC008F80D2A012085BC2A122B7
:100881007F381208B27F0C1208B27F061208B27FBD
:04089100010208B2A6
:10089500C2B612085DD2B620B5FDC2B7AF90D2B7C9
:0108A5002230
:100800001208817F801208B27F541208BC7F451203
:1008100008BC7F4D1208BC7F501208BC7F3A1208FA
:10082000BC1208958F08E508C313F97F851208B23A
:10083000E975F00A842430FF1208BCE975F00A84D7
:10084000E5F02430FF1208BC7FDF1208BC7F4312A2
:0B08500008BC7FF47E0112086180C626
:030000000208A64D
:0C08A600787FE4F6D8FD75810802080098
:00000001FF
