:10084900E4FDFCC3ED9FEC9E5015E4FBFA0BBB00E5
:0F085900010ABA0BF8BBB8F50DBD00010C80E425
:01086800226D
:050869007F3212084976
:10086E00C2A2C2A5C293C292D2A0D2A1D2A3D2A436
:09087E00D2A6D2A7D290D2912299
:1008000012086ED2A2C2A07F647E00120849D2A054
:10081000C2A1120869D2A5C2A37F64120849D2A35B
:10082000C2A4120869D293C2A67F64120849D2A654
:10083000C2A7120869D292C2907F64120849D2906E
:09084000C2917F3212084980B711
:030000000208876C
:0C088700787FE4F6D8FD758107020800B8
:00000001FF
